:0400000057EF00F0C6
:08000800046ED8CF05F0E0CF33
:1000100006F00001E9CF0CF0EACF07F0E1CF08F0DD
:10002000E2CF09F0D9CF0AF0DACF0BF0F3CF12F01C
:10003000F4CF13F0FACF14F000C00EF001C00FF0AF
:1000400002C010F003C011F0F2AA2AEF00F0F2B4DF
:1000500054EF00F09DAA30EF00F09EBA51EF00F08F
:100060000EC000F00FC001F010C002F011C003F08C
:100070000CC0E9FF07C0EAFF078E08C0E1FF09C016
:10008000E2FF0AC0D9FF0BC0DAFF12C0F3FF13C0B2
:10009000F4FF14C0FAFF045006C0E0FF05C0D8FF0B
:1000A00010009E9A30EF00F0F29430EF00F0F86A02
:1000B000D09E078EB886A00EAF6E010EB06EA60E53
:1000C000AC6E900EAB6EC150C00B0F09C16E070E27
:0A00D000B46E166A176AFFD703002A
:020000040030CA
:0E0000000002181E000581000FC00FE00F4027
:00000001FF
;PIC18F4620
;CRC=9F3D  CREATED="28-jun.-19 12:41"
