:0400000055EF00F0C8
:08000800046ED8CF05F0E0CF33
:1000100006F00001E9CF0CF0EACF07F0E1CF08F0DD
:10002000E2CF09F0D9CF0AF0DACF0BF0F3CF12F01C
:10003000F4CF13F0FACF14F000C00EF001C00FF0AF
:1000400002C010F003C011F0F2AA2AEF00F0F2B4DF
:100050004BEF00F00EC000F00FC001F010C002F036
:1000600011C003F00CC0E9FF07C0EAFF078E08C00B
:10007000E1FF09C0E2FF0AC0D9FF0BC0DAFF12C0DE
:10008000F3FF13C0F4FF14C0FAFF045006C0E0FFF2
:1000900005C0D8FF1000FE0ED76EC10ED66E1F2A07
:1000A000202A212AF2942AEF00F0F86AD09E078EC7
:1000B000B886A00EAF6E010EB06EA60EAC6E900E9E
:1000C000AB6E010E1C6E1D6E1E6E1F6A206A216AC9
:1000D000C150C00B0F09C16E070EB46E166A176AC5
:1000E000820ED56EFE0ED76EC10ED66EF28AC00E8F
:1000F000F212926A896A936A8A6A956A8C6A1F2CDC
:1001000003D0D8901C361F6A1C50400802E1010E33
:100110001C6E926A1CC089FF2050030803E1D8902E
:100120001D36206A1D50000802E1010E1D6E936A03
:100130001DC08AFF2150050803E1D8901E36216AB0
:100140001E50000802E1010E1E6E956A1EC08CFF53
:04015000D6D70300FB
:020000040030CA
:0E0000000002181E000581000FC00FE00F4027
:00000001FF
;PIC18F4620
;CRC=D292  CREATED="28-jun.-19 13:08"
