:04000000A8EF00F075
:08000800046ED8CF05F0E0CF33
:1000100006F00001E9CF0CF0EACF07F0E1CF08F0DD
:10002000E2CF09F0D9CF0AF0DACF0BF0F3CF12F01C
:10003000F4CF13F0FACF14F000C00EF001C00FF0AF
:1000400002C010F003C011F0F2AA2AEF00F0F2B4DF
:1000500099EF00F09DAA30EF00F09EBA51EF00F04A
:100060000EC000F00FC001F010C002F011C003F08C
:100070000CC0E9FF07C0EAFF078E08C0E1FF09C016
:10008000E2FF0AC0D9FF0BC0DAFF12C0F3FF13C0B2
:10009000F4FF14C0FAFF045006C0E0FF05C0D8FF0B
:1000A00010009EAAFED7AECF3AF03C6A010E3B6E1E
:1000B0001C0E4324E96E000E4420EA6E9EAAFED771
:1000C000AECFEFFF432AD8B4442A3C6A010E3B6E00
:1000D00043501E0804E1445202E1446A436A1C5042
:1000E0003C0812E1020E435C4C6E000E44584D6E0B
:1000F0001C0E4C24E96E000E4D20EA6EEF503E08B7
:1001000003E1406A010E3F6E010E435C4C6E000E2F
:1001100044584D6E1C0E4C24E96E000E4D20EA6EC4
:10012000EF500D0803E13E6A010E3D6E9E9A30EFDE
:1001300000F0FE0ED76EC10ED66E482A492A4A2A12
:10014000F29430EF00F09EA8FED7AD6EE1EF00F024
:10015000F86AD09E078EB886A00EAF6E010EB06E04
:10016000A60EAC6E900EAB6E446A436A010E456EED
:10017000466E476E486A496A4A6AC150C00B0F0909
:10018000C16E070EB46E166A176A840ED56EFE0E27
:10019000D76EC10ED66EF28A9D8AC00EF212926A96
:1001A000896A936A8A6A956A8C6A000E926E936E67
:1001B000956E800E946E3B2C23D03C5221E13A5038
:1001C000C2D73C6A3B6A3F2C1BD0405219E13D2C00
:1001D00017D03E5215E1406A3F6A3E6A3D6A010E01
:1001E0004B6E020E435C006E000E4458036E00C05E
:1001F00001F0035203E101504B5C02E24B2AF1D7BC
:10020000482C03D0D8904536486A4550400802E152
:10021000010E456E926A45C089FF4950030803E10B
:10022000D8904636496A4650000802E1010E466EF3
:10023000936A46C08AFF4A50050803E1D8904736C2
:100240004A6A4750000802E1010E476E956A47C0AE
:060250008CFFAFD7030094
:020000040030CA
:0E0000000002181E000581000FC00FE00F4027
:00000001FF
;PIC18F4620
;CRC=1EE8  CREATED="28-jun.-19 13:55"
